:020000040800F2
:100000000050002069060008F9050008FF050008F7
:10001000050600080B060008110600080000000095
:1000200000000000000000000000000017060008AB
:1000300023060008000000002F0600083B06000809
:10004000B1060008B1060008B1060008B1060008B4
:10005000B1060008B1060008B1060008B1060008A4
:10006000B1060008B1060008B106000849060008FC
:10007000B1060008B1060008B1060008B106000884
:10008000B1060008B1060008B1060008B106000874
:10009000B1060008B1060008B1060008B106000864
:1000A000B1060008B1060008B1060008B106000854
:1000B000B1060008B1060008B1060008B106000844
:1000C000B1060008B1060008B1060008B106000834
:1000D000B1060008B1060008B1060008B106000824
:1000E000B1060008B1060008B106000800000000D3
:1000F0000000000000000000000000000000000000
:0C01000000000000000000005FF808F1A3
:10010C0010B5054C237833B9044B13B10448AFF345
:10011C0000800123237010BD140200200000000099
:10012C00E426000808B5034B1BB103490348AFF3A1
:10013C00008008BD0000000018020020E426000822
:10014C0080B500AF00F0B0FA00F02AF800F078F9B2
:10015C0000F058F900F06AF800F0DEF800210B48C6
:10016C0001F004FD00210A4801F006FC09490A4B84
:10017C001A688023094800F061FC054B1B68DA689B
:10018C00034B1B6842F40072DA60FEE73002002079
:10019C00780200200000002000020020C002002095
:1001AC0080B590B000AF07F1180328220021184643
:1001BC0002F08AFA3B1D00221A605A609A60DA60DB
:1001CC001A610123BB614FF48033FB6100233B6256
:1001DC000123BB6202237B634FF48033BB634FF478
:1001EC00E013FB6307F11803184600F03FFF0346CA
:1001FC00002B01D000F046F90F237B600223BB607B
:10020C000023FB604FF480633B6100237B613B1D4B
:10021C000221184601F0ACF90346002B01D000F086
:10022C0031F900BF4037BD4680BD000080B58EB0AF
:10023C0000AF07F1280300221A605A609A60DA6056
:10024C0007F1200300221A605A603B1D00221A603D
:10025C005A609A60DA601A615A619A612D4B4FF0BC
:10026C0080421A602B4B00225A602A4B00229A6063
:10027C00284B4FF6FF72DA60264B00221A61254B91
:10028C0000229A61234801F0CFFA0346002B01D0DB
:10029C0000F0F8F84FF48053BB6207F128031946BD
:1002AC001C4801F023FE0346002B01D000F0EAF8B5
:1002BC00184801F003FC0346002B01D000F0E2F8D3
:1002CC0000233B6200237B6207F12003194611488F
:1002DC0002F078F90346002B01D000F0D3F860232C
:1002EC007B600023BB600023FB6000237B613B1D14
:1002FC0000221946074801F037FD0346002B01D0B8
:10030C0000F0C0F8034800F041F900BF3837BD4693
:10031C0080BD00BF3002002080B58EB000AF07F169
:10032C00280300221A605A609A60DA6007F12003F1
:10033C0000221A605A603B1D00221A605A609A60B3
:10034C00DA601A615A619A612B4B2C4A1A602A4B5B
:10035C0000225A60284B00229A60294B1B68013BF3
:10036C00254AD360244B00221A61234B80229A61C8
:10037C00214801F059FA0346002B01D000F082F815
:10038C004FF48053BB6207F1280319461A4801F059
:10039C00ADFD0346002B01D000F074F8164801F0B7
:1003AC0092FA0346002B01D000F06CF800233B625C
:1003BC0000237B6207F1200319460F4802F002F973
:1003CC000346002B01D000F05DF800237B60002376
:1003DC00BB600023FB6000237B613B1D00221946A0
:1003EC00054801F065FC0346002B01D000F04AF8EB
:1003FC0000BF3837BD4680BD7802002000080040A1
:10040C000402002080B582B000AF0C4B5B690B4A34
:10041C0043F001035361094B5B6903F001037B60FB
:10042C007B68002200210B2000F077FA0B2000F0F3
:10043C0090FA00BF0837BD4680BD00BF00100240D7
:10044C0080B483B000AF0E4B9B690D4A43F0200380
:10045C0093610B4B9B6903F020037B607B68084B1B
:10046C009B69074A43F004039361054B9B6903F0B6
:10047C0004033B603B6800BF0C37BD4680BC704733
:10048C000010024080B400AF72B600BFFEE700005F
:10049C0080B483B000AF0E4B9B690D4A43F001034F
:1004AC0093610B4B9B6903F001037B607B68084BEA
:1004BC00DB69074A43F08053D361054BDB6903F0DA
:1004CC0080533B603B6800BF0C37BD4680BC704717
:1004DC000010024080B584B000AF78607B681B6868
:1004EC00B3F1804F0CD1254BDB69244A43F0010357
:1004FC00D361224BDB6903F00103FB60FB6838E03E
:10050C007B681B681E4A934233D11C4BDB691B4A28
:10051C0043F00403D361194BDB6903F00403BB60A4
:10052C00BB68184B184A1A60164B10225A60154BB0
:10053C0000229A60134B8022DA60124B4FF4007247
:10054C001A61104B4FF400625A610E4B20229A61D3
:10055C000C4B0022DA610B4800F016FA0346002B14
:10056C0001D0FFF78FFF7B68064A5A62054A7B6809
:10057C00536200BF1037BD4680BD00BF0010024063
:10058C0000080040C00200200800024080B588B07E
:10059C0000AF786007F1100300221A605A609A606D
:1005AC00DA607B681B68B3F1804F17D10D4B9B69E8
:1005BC000C4A43F0040393610A4B9B6903F0040358
:1005CC00FB60FB6801233B6102237B610223FB611F
:1005DC0007F110031946044800F0C4FB00BF203794
:1005EC00BD4680BD001002400008014080B400AF41
:1005FC00FEE780B400AFFEE780B400AFFEE780B446
:10060C0000AFFEE780B400AFFEE780B400AF00BFE0
:10061C00BD4680BC704780B400AF00BFBD4680BCF7
:10062C00704780B400AF00BFBD4680BC704780B53A
:10063C0000AF00F07FF800BF80BD000080B500AFB8
:10064C00024800F05BFA00BF80BD00BFC002002072
:10065C0080B400AF00BFBD4680BC7047FFF7F8FF09
:10066C000B480C490C4A002302E0D458C450043304
:10067C00C4188C42F9D3094A094C002301E01360D9
:10068C000432A242FBD301F0FBFFFFF759FD704788
:10069C00000000201402002028270008140200206B
:1006AC0008030020FEE7000080B500AF084B1B6874
:1006BC00074A43F010031360032000F023F90F20C6
:1006CC0000F008F8FFF7E4FE0023184680BD00BFD9
:1006DC000020024080B582B000AF7860124B1A68DF
:1006EC00124B1B7819464FF47A73B3FBF1F3B2FB40
:1006FC00F3F3184600F03BF90346002B01D001231D
:10070C000EE07B680F2B0AD8002279684FF0FF307F
:10071C0000F003F9064A7B681360002300E0012314
:10072C0018460837BD4680BD080200201002002084
:10073C000C02002080B400AF054B1B781A46054B09
:10074C001B681344034A136000BFBD4680BC70474E
:10075C00100200200403002080B400AF024B1B6881
:10076C001846BD4680BC70470403002080B485B099
:10077C0000AF78607B6803F00703FB600C4BDB6811
:10078C00BB60BA684FF6FF031340BB60FB681A02EC
:10079C00BB68134343F0BF6343F40033BB60044AAC
:1007AC00BB68D36000BF1437BD4680BC704700BF28
:1007BC0000ED00E080B400AF044BDB681B0A03F0D3
:1007CC0007031846BD4680BC704700BF00ED00E033
:1007DC0080B483B000AF0346FB7197F90730002B50
:1007EC000BDBFB7903F01F02064997F907305B0915
:1007FC00012000FA02F241F8232000BF0C37BD465D
:10080C0080BC704700E100E080B483B000AF0346C9
:10081C003960FB7197F90730002B0ADB3B68DAB2C1
:10082C000C4997F907301201D2B20B4483F800231C
:10083C000AE03B68DAB20849FB7903F00F03043B8A
:10084C001201D2B20B441A7600BF0C37BD4680BCE5
:10085C00704700BF00E100E000ED00E080B489B01B
:10086C0000AFF860B9607A60FB6803F00703FB61C6
:10087C00FB69C3F10703042B28BF0423BB61FB698D
:10088C000433062B02D9FB69033B00E000237B6198
:10089C004FF0FF32BB6902FA03F3DA43BB681A402C
:1008AC007B699A404FF0FF317B6901FA03F3D9431E
:1008BC007B680B40134318462437BD4680BC7047F9
:1008CC0080B582B000AF78607B68013BB3F1807F6C
:1008DC0001D301230FE00A4A7B68013B53600F21CF
:1008EC004FF0FF30FFF790FF054B00229A60044B4E
:1008FC0007221A60002318460837BD4680BD00BF8A
:10090C0010E000E080B582B000AF78607868FFF747
:10091C002DFF00BF0837BD4680BD80B586B000AF47
:10092C000346B9607A60FB7300237B61FFF742FFDB
:10093C0078617A68B9687869FFF790FF024697F991
:10094C000F3011461846FFF75FFF00BF1837BD4642
:10095C0080BD80B582B000AF0346FB7197F90730BC
:10096C001846FFF735FF00BF0837BD4680BD80B580
:10097C0082B000AF78607868FFF7A2FF0346184694
:10098C000837BD4680BD000080B485B000AF7860EC
:10099C000023FB607B68002B01D1012343E07B68C3
:1009AC001B681A46224B1344224AA2FB03231B0941
:1009BC009A007B681A647B681F4ADA637B680222A0
:1009CC0083F821207B681B681B68FB60FB6823F4A1
:1009DC007F5323F03003FB607B685A687B689B680D
:1009EC001A437B68DB681A437B681B691A437B6874
:1009FC005B691A437B689B691A437B68DB69134309
:100A0C00FA681343FB607B681B68FA681A607B68A2
:100A1C0000229A637B68012283F821207B680022E4
:100A2C0083F82020002318461437BD4680BC70473D
:100A3C00F8FFFDBFCDCCCCCC0000024080B586B019
:100A4C0000AFF860B9607A603B600023FB75FB680F
:100A5C0093F82030012B01D102234BE0FB680122DB
:100A6C0083F82020FB6893F82130DBB2012B3AD1BC
:100A7C00FB68022283F82120FB6800229A63FB6842
:100A8C001B681A68FB681B6822F001021A603B683D
:100A9C007A68B968F86800F037F9FB68DB6A002BF4
:100AAC0008D0FB681B681A68FB681B6842F00E02D2
:100ABC001A600FE0FB681B681A68FB681B6822F061
:100ACC0004021A60FB681B681A68FB681B6842F01A
:100ADC000A021A60FB681B681A68FB681B6842F004
:100AEC0001021A6005E0FB68002283F82020022333
:100AFC00FB75FB7D18461837BD4680BD80B584B0AC
:100B0C0000AF78607B68DB6B1B68FB607B681B68E5
:100B1C001B68BB607B681B6C04229A40FB6813400B
:100B2C00002B4FD0BB6803F00403002B4AD07B682A
:100B3C001B681B6803F02003002B07D17B681B6824
:100B4C001A687B681B6822F004021A607B681B68B9
:100B5C00664A934229D07B681B68654A934222D02F
:100B6C007B681B68634A93421AD07B681B68624A95
:100B7C00934212D07B681B68604A93420AD07B6810
:100B8C001B685F4A934202D14FF480030EE04FF092
:100B9C0080630BE04FF4802308E04FF4804305E0C2
:100BAC004FF4806302E0402300E00423554A536075
:100BBC007B68DB6A002B00F094807B68DB6A7868CA
:100BCC0098478EE07B681B6C02229A40FB681340AE
:100BDC00002B56D0BB6803F00203002B51D07B686E
:100BEC001B681B6803F02003002B0BD17B681B6870
:100BFC001A687B681B6822F00A021A607B68012263
:100C0C0083F821207B681B68384A934229D07B6883
:100C1C001B68374A934222D07B681B68354A934243
:100C2C001AD07B681B68344A934212D07B681B68CD
:100C3C00324A93420AD07B681B68314A934202D1F4
:100C4C004FF400130EE04FF000730BE04FF4003341
:100C5C0008E04FF4005305E04FF4007302E020234A
:100C6C0000E00223274A53607B68002283F820208F
:100C7C007B689B6A002B34D07B689B6A78689847AA
:100C8C002FE07B681B6C08229A40FB681340002BFA
:100C9C0028D0BB6803F00803002B23D07B681B68AB
:100CAC001A687B681B6822F00E021A607B681A6C4B
:100CBC007B68DB6B012101FA02F25A607B6801222E
:100CCC009A637B68012283F821207B68002283F8D9
:100CDC0020207B681B6B002B04D07B681B6B786817
:100CEC00984700BF00BF1037BD4680BD08000240CA
:100CFC001C000240300002404400024058000240F8
:100D0C006C0002400000024080B485B000AFF86077
:100D1C00B9607A603B60FB681A6CFB68DB6B012185
:100D2C0001FA02F25A60FB681B683A685A60FB6869
:100D3C005B68102B08D1FB681B687A689A60FB68AB
:100D4C001B68BA68DA6007E0FB681B68BA689A60CF
:100D5C00FB681B687A68DA6000BF1437BD4680BC3C
:100D6C007047000080B48BB000AF7860396000230E
:100D7C007B6200233B6269E101227B6A02FA03F386
:100D8C00FB613B681B68FA691340BB61BA69FB697C
:100D9C009A4240F058813B685B689A4A93425ED015
:100DAC00984A934275D8984A934258D0964A93429F
:100DBC006FD8964A934252D0944A934269D8944A37
:100DCC0093424CD0924A934263D8924A934246D073
:100DDC00904A93425DD8122B2AD8122B59D801A2D3
:100DEC0052F823F06B0E0008450E0008570E000851
:100DFC00990E00089F0E00089F0E00089F0E000819
:100E0C009F0E00089F0E00089F0E00089F0E000802
:100E1C009F0E00089F0E00089F0E00089F0E0008F2
:100E2C009F0E00089F0E00084D0E0008610E000872
:100E3C00794A934213D02CE03B68DB683B6229E093
:100E4C003B68DB6804333B6224E03B68DB680833B7
:100E5C003B621FE03B68DB680C333B621AE03B688B
:100E6C009B68002B02D104233B6213E03B689B6818
:100E7C00012B05D108233B627B68FA691A6109E0F2
:100E8C0008233B627B68FA695A6103E000233B62EA
:100E9C0000E000BFBB69FF2B01D87B6801E07B68D9
:100EAC0004337B61BB69FF2B02D87B6A9B0002E099
:100EBC007B6A083B9B003B617B691A680F213B698D
:100ECC0001FA03F3DB431A40396A3B6901FA03F375
:100EDC001A437B691A603B685B6803F08053002BF4
:100EEC0000F0B1804D4B9B694C4A43F00103936178
:100EFC004A4B9B6903F00103BB60BB68484A7B6AA1
:100F0C009B08023352F82330FB607B6A03F0030327
:100F1C009B000F2202FA03F3DB43FA681340FB60D9
:100F2C007B68404A934213D07B683F4A93420DD072
:100F3C007B683E4A934207D07B683D4A934201D17D
:100F4C00032306E0042304E0022302E0012300E073
:100F5C0000237A6A02F0030292009340FA6813436A
:100F6C00FB602F497B6A9B080233FA6841F8232007
:100F7C003B685B6803F48013002B06D02D4B9A68FA
:100F8C002C49BB6913438B6006E02A4B9A68BB69FA
:100F9C00DB43284913408B603B685B6803F4001308
:100FAC00002B06D0234BDA682249BB691343CB6074
:100FBC0006E0204BDA68BB69DB431E491340CB606B
:100FCC003B685B6803F40033002B06D0194B5A685E
:100FDC001849BB6913434B6006E0164B5A68BB6952
:100FEC00DB43144913404B603B685B6803F480336C
:100FFC00002B21D00F4B1A680E49BB6913430B60B1
:10100C0021E000BF0000321000003110000022105F
:10101C0000002110000012100000111000100240FE
:10102C000000014000080140000C0140001001408C
:10103C0000140140000401400B4B1A68BB69DB43F0
:10104C00094913400B607B6A01337B623B681A6869
:10105C007B6A22FA03F3002B7FF48EAE00BF00BF35
:10106C002C37BD4680BC70470004014080B586B06B
:10107C0000AF78607B68002B01D1012372E27B68A2
:10108C001B6803F00103002B00F08780924B5B6818
:10109C0003F00C03042B0CD08F4B5B6803F00C0398
:1010AC00082B12D18C4B5B6803F48033B3F5803F73
:1010BC000BD1894B1B6803F40033002B6CD07B687D
:1010CC005B68002B68D101234CE27B685B68B3F54D
:1010DC00803F06D1804B1B687F4A43F480331360FA
:1010EC002EE07B685B68002B0CD17B4B1B687A4A2B
:1010FC0023F480331360784B1B68774A23F48023E6
:10110C0013601DE07B685B68B3F5A02F0CD1724BAC
:10111C001B68714A43F4802313606F4B1B686E4A43
:10112C0043F4803313600BE06B4B1B686A4A23F467
:10113C0080331360684B1B68674A23F48023136069
:10114C007B685B68002B13D0FFF706FB386108E067
:10115C00FFF702FB02463B69D31A642B01D9032328
:10116C0000E25D4B1B6803F40033002BF0D014E05D
:10117C00FFF7F2FA386108E0FFF7EEFA02463B6936
:10118C00D31A642B01D90323ECE1534B1B6803F4F2
:10119C000033002BF0D100E000BF7B681B6803F02C
:1011AC000203002B63D04C4B5B6803F00C03002B49
:1011BC000BD0494B5B6803F00C03082B1CD1464B3E
:1011CC005B6803F48033002B16D1434B1B6803F090
:1011DC000203002B05D07B681B69012B01D0012376
:1011EC00C0E13D4B1B6823F0F8027B685B69DB00B8
:1011FC00394913430B603AE07B681B69002B20D004
:10120C00364B01221A60FFF7A7FA386108E0FFF7A6
:10121C00A3FA02463B69D31A022B01D90323A1E19D
:10122C002D4B1B6803F00203002BF0D02A4B1B68DC
:10123C0023F0F8027B685B69DB00274913430B60E2
:10124C0015E0264B00221A60FFF786FA386108E099
:10125C00FFF782FA02463B69D31A022B01D903230A
:10126C0080E11D4B1B6803F00203002BF0D17B685F
:10127C001B6803F00803002B3AD07B689B69002B9A
:10128C0019D0174B01221A60FFF766FA386108E093
:10129C00FFF762FA02463B69D31A022B01D90323EA
:1012AC0060E10D4B5B6A03F00203002BF0D00120D0
:1012BC0000F09CFA1CE00A4B00221A60FFF74CFA73
:1012CC0038610FE0FFF748FA02463B69D31A022B4C
:1012DC0008D9032346E100BF00100240000042423F
:1012EC0080044242924B5B6A03F00203002BE9D16B
:1012FC007B681B6803F00403002B00F0A68000231E
:10130C00FB758B4BDB6903F08053002B0DD1884BA5
:10131C00DB69874A43F08053D361854BDB6903F06B
:10132C008053BB60BB680123FB75824B1B6803F4C5
:10133C008073002B18D17F4B1B687E4A43F480735B
:10134C001360FFF709FA386108E0FFF705FA024667
:10135C003B69D31A642B01D9032303E1754B1B683A
:10136C0003F48073002BF0D07B68DB68012B06D173
:10137C006F4B1B6A6E4A43F0010313622DE07B68CE
:10138C00DB68002B0CD16A4B1B6A694A23F0010302
:10139C001362674B1B6A664A23F0040313621CE05A
:1013AC007B68DB68052B0CD1614B1B6A604A43F0F0
:1013BC00040313625E4B1B6A5D4A43F00103136224
:1013CC000BE05B4B1B6A5A4A23F001031362584B28
:1013DC001B6A574A23F0040313627B68DB68002BFB
:1013EC0015D0FFF7B9F938610AE0FFF7B5F90246F5
:1013FC003B69D31A41F28832934201D90323B1E0FD
:10140C004B4B1B6A03F00203002BEED014E0FFF7EA
:10141C00A3F938610AE0FFF79FF902463B69D31A3A
:10142C0041F28832934201D903239BE0404B1B6A63
:10143C0003F00203002BEED1FB7D012B05D13C4BBD
:10144C00DB693B4A23F08053D3617B68DB69002B5B
:10145C0000F08780364B5B6803F00C03082B61D0DF
:10146C007B68DB69022B46D1334B00221A60FFF7F5
:10147C0073F9386108E0FFF76FF902463B69D31A3C
:10148C00022B01D903236DE0294B1B6803F0007379
:10149C00002BF0D17B681B6AB3F5803F08D1244B3D
:1014AC005B6823F400327B689B68214913434B60D3
:1014BC001F4B5B6823F474127B68196A7B685B6A48
:1014CC000B431B4913434B601B4B01221A60FFF764
:1014DC0043F9386108E0FFF73FF902463B69D31A3C
:1014EC00022B01D903233DE0114B1B6803F0007361
:1014FC00002BF0D035E0104B00221A60FFF72CF9CE
:10150C00386108E0FFF728F902463B69D31A022B31
:10151C0001D9032326E0064B1B6803F00073002B54
:10152C00F0D11EE07B68DB69012B07D1012319E0A8
:10153C000010024000700040600042420B4B5B68A0
:10154C00FB60FB6803F480327B681B6A9A4206D10D
:10155C00FB6803F470127B685B6A9A4201D001232A
:10156C0000E0002318461837BD4680BD001002402D
:10157C0080B584B000AF786039607B68002B01D1F6
:10158C000123D0E06A4B1B6803F007033A689A42C8
:10159C0010D9674B1B6823F0070265493B6813435E
:1015AC000B60634B1B6803F007033A689A4201D047
:1015BC000123B8E07B681B6803F00203002B20D0EA
:1015CC007B681B6803F00403002B05D0594B5B6848
:1015DC00584A43F4E06353607B681B6803F00803CC
:1015EC00002B05D0534B5B68524A43F46053536055
:1015FC00504B5B6823F0F0027B689B684D491343AA
:10160C004B607B681B6803F00103002B40D07B68A8
:10161C005B68012B07D1474B1B6803F40033002B8D
:10162C0015D101237FE07B685B68022B07D1414B0E
:10163C001B6803F00073002B09D1012373E03D4BB1
:10164C001B6803F00203002B01D101236BE0394B23
:10165C005B6823F003027B685B68364913434B607D
:10166C00FFF77AF8F8600AE0FFF776F80246FB68B5
:10167C00D31A41F28832934201D9032353E02D4B04
:10168C005B6803F00C027B685B689B009A42EBD1B1
:10169C00274B1B6803F007033A689A4210D2244B7D
:1016AC001B6823F0070222493B6813430B60204B55
:1016BC001B6803F007033A689A4201D0012332E019
:1016CC007B681B6803F00403002B08D0194B5B6884
:1016DC0023F4E0627B68DB68164913434B607B683C
:1016EC001B6803F00803002B09D0124B5B6823F432
:1016FC0060527B681B69DB000E4913434B6000F0A2
:10170C0021F802460B4B5B681B0903F00F030A49D7
:10171C00CB5C22FA03F3094A1360094B1B68184689
:10172C00FEF7D8FF002318461037BD4680BD00BF1A
:10173C000020024000100240FC2600080802002095
:10174C000C02002080B487B000AF0023FB600023A4
:10175C00BB6000237B6100237B6000233B611E4B3D
:10176C005B68FB60FB6803F00C03042B02D0082BB6
:10177C0003D027E0194B3B6127E0FB689B0C03F07F
:10178C000F03174AD35C7B60FB6803F48033002B98
:10179C0010D0114B5B685B0C03F00103114AD35C56
:1017AC00BB607B680D4A03FB02F2BB68B2FBF3F330
:1017BC007B6104E07B680C4A02FB03F37B617B6971
:1017CC003B6102E0054B3B6100BF3B6918461C378F
:1017DC00BD4680BC704700BF0010024000127A006A
:1017EC000C2700081C27000800093D0080B485B0B8
:1017FC0000AF78600A4B1B680A4AA2FB03235B0A02
:10180C007A6802FB03F3FB6000BFFB685A1EFA60A8
:10181C00002BF9D100BF00BF1437BD4680BC704708
:10182C0008020020D34D621080B582B000AF786002
:10183C007B68002B01D1012341E07B6893F83D309C
:10184C00DBB2002B06D17B68002283F83C20786841
:10185C00FEF740FE7B68022283F83D207B681A6805
:10186C007B6804331946104600F008FC7B680122A3
:10187C0083F846207B68012283F83E207B68012296
:10188C0083F83F207B68012283F840207B6801228B
:10189C0083F841207B68012283F842207B68012277
:1018AC0083F843207B68012283F844207B68012263
:1018BC0083F845207B68012283F83D2000231846DD
:1018CC000837BD4680BD80B582B000AF78607B68BC
:1018DC00002B01D1012341E07B6893F83D30DBB252
:1018EC00002B06D17B68002283F83C20786800F03E
:1018FC0039F87B68022283F83D207B681A687B6884
:10190C0004331946104600F0B9FB7B68012283F8BA
:10191C0046207B68012283F83E207B68012283F8F5
:10192C003F207B68012283F840207B68012283F8EA
:10193C0041207B68012283F842207B68012283F8D6
:10194C0043207B68012283F844207B68012283F8C2
:10195C0045207B68012283F83D2000231846083778
:10196C00BD4680BD80B483B000AF786000BF0C373B
:10197C00BD4680BC7047000080B584B000AF786075
:10198C0039603B68002B09D17B6893F83E30DBB2A1
:10199C00012B14BF01230023DBB222E03B68042B94
:1019AC0009D17B6893F83F30DBB2012B14BF0123C4
:1019BC000023DBB215E03B68082B09D17B6893F858
:1019CC004030DBB2012B14BF01230023DBB208E053
:1019DC007B6893F84130DBB2012B14BF0123002349
:1019EC00DBB2002B01D001235EE03B68002B04D15D
:1019FC007B68022283F83E2013E03B68042B04D161
:101A0C007B68022283F83F200BE03B68082B04D153
:101A1C007B68022283F8402003E07B68022283F873
:101A2C0041207B681B6801223968184600F0A6FD2E
:101A3C007B681B681E4A934207D17B681B685A6CF3
:101A4C007B681B6842F400425A647B681B68184A26
:101A5C0093420ED07B681B68B3F1804F09D07B6832
:101A6C001B68144A934204D07B681B68124A934249
:101A7C0011D17B681B689B6803F00703FB60FB6854
:101A8C00062B10D07B681B681A687B681B6842F0B9
:101A9C0001021A6007E07B681B681A687B681B6888
:101AAC0042F001021A60002318461037BD4680BD73
:101ABC00002C0140000400400008004080B582B0BA
:101ACC0000AF78607B68002B01D1012341E07B687B
:101ADC0093F83D30DBB2002B06D17B68002283F8F3
:101AEC003C20786800F039F87B68022283F83D20AE
:101AFC007B681A687B6804331946104600F0BEFAFE
:101B0C007B68012283F846207B68012283F83E2003
:101B1C007B68012283F83F207B68012283F84020F8
:101B2C007B68012283F841207B68012283F84220E4
:101B3C007B68012283F843207B68012283F84420D0
:101B4C007B68012283F845207B68012283F83D20C5
:101B5C00002318460837BD4680BD80B483B000AF63
:101B6C00786000BF0C37BD4680BC704780B584B030
:101B7C0000AF786039603B68002B09D17B6893F823
:101B8C003E30DBB2012B14BF01230023DBB222E079
:101B9C003B68042B09D17B6893F83F30DBB2012BF7
:101BAC0014BF01230023DBB215E03B68082B09D1DD
:101BBC007B6893F84030DBB2012B14BF0123002368
:101BCC00DBB208E07B6893F84130DBB2012B14BF29
:101BDC0001230023DBB2002B01D001235EE03B6824
:101BEC00002B04D17B68022283F83E2013E03B6873
:101BFC00042B04D17B68022283F83F200BE03B6866
:101C0C00082B04D17B68022283F8402003E07B6818
:101C1C00022283F841207B681B6801223968184630
:101C2C0000F0ACFC7B681B681E4A934207D17B68B2
:101C3C001B685A6C7B681B6842F400425A647B68D0
:101C4C001B68184A93420ED07B681B68B3F1804F17
:101C5C0009D07B681B68144A934204D07B681B68CC
:101C6C00124A934211D17B681B689B6803F00703EF
:101C7C00FB60FB68062B10D07B681B681A687B68BE
:101C8C001B6842F001021A6007E07B681B681A6847
:101C9C007B681B6842F001021A600023184610375B
:101CAC00BD4680BD002C01400004004000080040EF
:101CBC0080B586B000AFF860B9607A600023FB7520
:101CCC00FB6893F83C30012B01D1022348E0FB6800
:101CDC00012283F83C207B680C2B39D801A252F8E6
:101CEC0023F000BF251D00085D1D00085D1D0008C8
:101CFC005D1D0008331D00085D1D00085D1D0008FA
:101D0C005D1D0008411D00085D1D00085D1D0008DB
:101D1C005D1D00084F1D0008FB681B68B96818465C
:101D2C0000F00EFA17E0FB681B68B968184600F063
:101D3C006DFA10E0FB681B68B968184600F0D0FA21
:101D4C0009E0FB681B68B968184600F033FB02E039
:101D5C000123FB7500BFFB68002283F83C20FB7D50
:101D6C0018461837BD4680BD80B586B000AFF86008
:101D7C00B9607A600023FB75FB6893F83C30012B4B
:101D8C0001D10223AEE0FB68012283F83C207B6882
:101D9C000C2B00F29F8001A252F823F0DD1D0008ED
:101DAC00E11E0008E11E0008E11E00081D1E0008CF
:101DBC00E11E0008E11E0008E11E00085F1E00087D
:101DCC00E11E0008E11E0008E11E00089F1E00082D
:101DDC00FB681B68B968184600F0B2F9FB681B6811
:101DEC009A69FB681B6842F008029A61FB681B68E1
:101DFC009A69FB681B6822F004029A61FB681B68F5
:101E0C009969BB681A69FB681B680A439A6164E0AC
:101E1C00FB681B68B968184600F0F8F9FB681B688A
:101E2C009A69FB681B6842F400629A61FB681B6844
:101E3C009A69FB681B6822F480629A61FB681B68D4
:101E4C009969BB681B691A02FB681B680A439A6193
:101E5C0043E0FB681B68B968184600F041FAFB6860
:101E6C001B68DA69FB681B6842F00802DA61FB68E0
:101E7C001B68DA69FB681B6822F00402DA61FB68F4
:101E8C001B68D969BB681A69FB681B680A43DA616D
:101E9C0023E0FB681B68B968184600F08BFAFB68F6
:101EAC001B68DA69FB681B6842F40062DA61FB6844
:101EBC001B68DA69FB681B6822F48062DA61FB68D4
:101ECC001B68D969BB681B691A02FB681B680A434B
:101EDC00DA6102E00123FB7500BFFB68002283F886
:101EEC003C20FB7D18461837BD4680BD80B584B0BC
:101EFC0000AF786039600023FB737B6893F83C304B
:101F0C00012B01D10223B4E07B68012283F83C2031
:101F1C007B68022283F83D207B681B689B68BB6052
:101F2C00BB6823F07703BB60BB6823F47F43BB60C3
:101F3C007B681B68BA689A603B681B68B3F5005FE6
:101F4C003ED0B3F5005F00F28780B3F5805F00F000
:101F5C008680B3F5805F7FD8702B1AD0702B7BD81E
:101F6C00602B50D0602B77D8502B3CD0502B73D893
:101F7C00402B58D0402B6FD8302B64D0302B6BD8E3
:101F8C00202B60D0202B67D8002B5CD0102B5AD084
:101F9C0062E07B6818683B6899683B685A683B68E4
:101FAC00DB6800F0CCFA7B681B689B68BB60BB6885
:101FBC0043F07703BB607B681B68BA689A604FE09C
:101FCC007B6818683B6899683B685A683B68DB68B3
:101FDC0000F0B5FA7B681B689A687B681B6842F452
:101FEC0080429A603CE07B6818683B6859683B68A3
:101FFC00DB681A4600F02CFA7B681B6850211846E7
:10200C0000F083FA2CE07B6818683B6859683B68E1
:10201C00DB681A4600F04AFA7B681B686021184698
:10202C0000F073FA1CE07B6818683B6859683B68E1
:10203C00DB681A4600F00CFA7B681B6840211846D6
:10204C0000F063FA0CE07B681A683B681B68194661
:10205C00104600F05AFA03E00123FB7300E000BFC6
:10206C007B68012283F83D207B68002283F83C20AA
:10207C00FB7B18461037BD4680BD000080B485B090
:10208C0000AF786039607B681B68FB607B68294A0D
:10209C0093420BD07B68B3F1804F07D07B68264A04
:1020AC00934203D07B68254A934208D1FB6823F006
:1020BC007003FB603B685B68FA681343FB607B68EA
:1020CC001C4A93420BD07B68B3F1804F07D07B68DE
:1020DC00194A934203D07B68184A934208D1FB6893
:1020EC0023F44073FB603B68DB68FA681343FB60C6
:1020FC00FB6823F080023B685B691343FB607B68E1
:10210C00FA681A603B689A687B68DA623B681A68FE
:10211C007B689A627B68074A934203D13B681A69D1
:10212C007B681A637B6801225A6100BF1437BD4675
:10213C0080BC7047002C01400004004000080040A7
:10214C0080B487B000AF786039607B681B6A7B61B4
:10215C007B681B6A23F001027B681A627B685B68F0
:10216C003B617B689B69FB60FB6823F07003FB6041
:10217C00FB6823F00303FB603B681B68FA6813439E
:10218C00FB607B6923F002037B613B689B687A6987
:10219C0013437B617B681C4A93420CD17B6923F00F
:1021AC0008037B613B68DB687A6913437B617B695D
:1021BC0023F004037B617B68134A934211D13B6982
:1021CC0023F480733B613B6923F400733B613B68F0
:1021DC005B693A6913433B613B689B693A691343FA
:1021EC003B617B683A695A607B68FA689A613B6824
:1021FC005A687B685A637B687A691A6200BF1C371D
:10220C00BD4680BC704700BF002C014080B487B035
:10221C0000AF786039607B681B6A7B617B681B6AE6
:10222C0023F010027B681A627B685B683B617B68F9
:10223C009B69FB60FB6823F4E043FB60FB6823F4C1
:10224C004073FB603B681B681B02FA681343FB601E
:10225C007B6923F020037B613B689B681B017A69D7
:10226C0013437B617B681D4A93420DD17B6923F03C
:10227C0080037B613B68DB681B017A6913437B61DC
:10228C007B6923F040037B617B68144A934213D132
:10229C003B6923F480633B613B6923F400633B613E
:1022AC003B685B699B003A6913433B613B689B69E4
:1022BC009B003A6913433B617B683A695A607B68BF
:1022CC00FA689A613B685A687B689A637B687A699A
:1022DC001A6200BF1C37BD4680BC7047002C014001
:1022EC0080B487B000AF786039607B681B6A7B6113
:1022FC007B681B6A23F480727B681A627B685B685C
:10230C003B617B68DB69FB60FB6823F07003FB605F
:10231C00FB6823F00303FB603B681B68FA681343FC
:10232C00FB607B6923F400737B613B689B681B0239
:10233C007A6913437B617B681D4A93420DD17B699B
:10234C0023F400637B613B68DB681B027A691343EF
:10235C007B617B6923F480637B617B68144A9342C5
:10236C0013D13B6923F480533B613B6923F4005345
:10237C003B613B685B691B013A6913433B613B68FA
:10238C009B691B013A6913433B617B683A695A604C
:10239C007B68FA68DA613B685A687B68DA637B6849
:1023AC007A691A6200BF1C37BD4680BC704700BFFB
:1023BC00002C014080B487B000AF786039607B6836
:1023CC001B6A3B617B681B6A23F480527B681A6230
:1023DC007B685B687B617B68DB69FB60FB6823F473
:1023EC00E043FB60FB6823F44073FB603B681B68B5
:1023FC001B02FA681343FB603B6923F400533B61F7
:10240C003B689B681B033A6913433B617B680F4A2B
:10241C00934209D17B6923F480437B613B685B6900
:10242C009B017A6913437B617B687A695A607B688C
:10243C00FA68DA613B685A687B681A647B683A69A7
:10244C001A6200BF1C37BD4680BC7047002C01408F
:10245C0080B487B000AFF860B9607A60FB681B6A23
:10246C007B61FB681B6A23F00102FB681A62FB6844
:10247C009B693B613B6923F0F0033B617B681B016B
:10248C003A6913433B617B6923F00A037B617A69E8
:10249C00BB6813437B61FB683A699A61FB687A6994
:1024AC001A6200BF1C37BD4680BC704780B487B031
:1024BC0000AFF860B9607A60FB681B6A7B61FB68EF
:1024CC001B6A23F01002FB681A62FB689B693B6174
:1024DC003B6923F470433B617B681B033A691343EC
:1024EC003B617B6923F0A0037B61BB681B017A69AC
:1024FC0013437B61FB683A699A61FB687A691A62DB
:10250C0000BF1C37BD4680BC704780B485B000AF9F
:10251C00786039607B689B68FB60FB6823F0700314
:10252C00FB603A68FB68134343F00703FB607B686E
:10253C00FA689A6000BF1437BD4680BC704780B4FF
:10254C0087B000AFF860B9607A603B60FB689B684D
:10255C007B617B6923F47F437B613B681A027B6858
:10256C001A43BB6813437A6913437B61FB687A692E
:10257C009A6000BF1C37BD4680BC704780B487B0E2
:10258C0000AFF860B9607A60BB6803F01F030122EA
:10259C0002FA03F37B61FB681A6A7B69DB431A401E
:1025AC00FB681A62FB681A6ABB6803F01F03796840
:1025BC0001FA03F31A43FB681A6200BF1C37BD46CD
:1025CC0080BC704780B485B000AF786039607B68A0
:1025DC0093F83C30012B01D1022346E07B680122A9
:1025EC0083F83C207B68022283F83D207B681B68C3
:1025FC005B68FB607B681B689B68BB60FB6823F0B7
:10260C007003FB603B681B68FA681343FB607B68D4
:10261C001B68FA685A607B681B68164A93420ED096
:10262C007B681B68B3F1804F09D07B681B68124A2A
:10263C00934204D07B681B68104A93420CD1BB6850
:10264C0023F08003BB603B685B68BA681343BB60D4
:10265C007B681B68BA689A607B68012283F83D200E
:10266C007B68002283F83C20002318461437BD46B3
:10267C0080BC7047002C0140000400400008004062
:10268C0070B500260C4D0D4C641BA410A64209D14C
:10269C0000F022F800260A4D0A4C641BA410A64236
:1026AC0005D170BD55F8043B98470136EEE755F857
:1026BC00043B98470136F2E7202700082027000842
:1026CC00202700082427000803460244934200D127
:1026DC00704703F8011BF9E7F8B500BFF8BC08BC5C
:1026EC009E467047F8B500BFF8BC08BC9E467047C4
:1026FC0000000000000000000102030406070809A6
:10270C0002030405060708090A0B0C0D0E0F101026
:04271C0001020000B6
:04272000310100087B
:042724000D0100089B
:102728000000000010000000200000003000000041
:10273800400000005100000061000000710000002E
:102748008100000091000000A1000000B10000001D
:10275800C1000000D1000000E2000000F20000000B
:1027680002010000120100002201000032010000F5
:1027780042010000520100006201000073010000E4
:102788008301000093010000A3010000B3010000D1
:10279800C3010000D3010000E3010000F3010000C1
:1027A80004020000140200002402000034020000A9
:1027B8004402000054020000640200007402000099
:1027C8008402000095020000A5020000B502000086
:1027D800C5020000D5020000E5020000F502000075
:1027E800050300001503000026030000360300005F
:1027F800460300005603000066030000760300004D
:102808008603000096030000A6030000B70300003B
:10281800C7030000D7030000E7030000F703000028
:10282800F7030000E7030000D7030000C703000018
:10283800B7030000A603000096030000860300000B
:1028480076030000660300005603000046030000FC
:1028580036030000260300001503000005030000EE
:10286800F5020000E5020000D5020000C5020000E4
:10287800B5020000A50200009502000084020000D5
:1028880074020000640200005402000044020000C8
:1028980034020000240200001402000004020000B8
:1028A800F3010000E3010000D3010000C3010000B0
:1028B800B3010000A30100009301000083010000A0
:1028C8007301000062010000520100004201000093
:1028D8003201000022010000120100000201000084
:1028E800F2000000E2000000D1000000C10000007A
:1028F800B1000000A100000091000000810000006C
:10290800710000006100000051000000400000005C
:10291800300000002000000010000000000000004F
:1029280034000040320200000024F40010000000CF
:04293800010000009A
:040000050800066980
:00000001FF
